{
  "_format": "hh-sol-artifact-1",
  "contractName": "KickStarter",
  "sourceName": "contracts/Kickstart.sol",
  "abi": [
    {
      "inputs": [
        {
          "internalType": "uint256",
          "name": "_targetValue",
          "type": "uint256"
        }
      ],
      "stateMutability": "nonpayable",
      "type": "constructor"
    },
    {
      "anonymous": false,
      "inputs": [
        {
          "indexed": false,
          "internalType": "string",
          "name": "name",
          "type": "string"
        },
        {
          "indexed": false,
          "internalType": "uint256",
          "name": "value",
          "type": "uint256"
        }
      ],
      "name": "DonationReceived",
      "type": "event"
    },
    {
      "anonymous": false,
      "inputs": [],
      "name": "TargetReached",
      "type": "event"
    },
    {
      "inputs": [],
      "name": "computeRemaining",
      "outputs": [
        {
          "internalType": "uint256",
          "name": "",
          "type": "uint256"
        }
      ],
      "stateMutability": "view",
      "type": "function"
    },
    {
      "inputs": [
        {
          "internalType": "string",
          "name": "name",
          "type": "string"
        }
      ],
      "name": "deposit",
      "outputs": [],
      "stateMutability": "payable",
      "type": "function"
    },
    {
      "inputs": [],
      "name": "getAccumulated",
      "outputs": [
        {
          "internalType": "uint256",
          "name": "",
          "type": "uint256"
        }
      ],
      "stateMutability": "view",
      "type": "function"
    },
    {
      "inputs": [],
      "name": "getTotalDonations",
      "outputs": [
        {
          "internalType": "uint256",
          "name": "",
          "type": "uint256"
        }
      ],
      "stateMutability": "view",
      "type": "function"
    }
  ],
  "bytecode": "0x608060405234801561001057600080fd5b5060405161097c38038061097c833981810160405281019061003291906100e2565b6000811161003f57600080fd5b80600181905550336000806101000a81548173ffffffffffffffffffffffffffffffffffffffff021916908373ffffffffffffffffffffffffffffffffffffffff1602179055506001600260006101000a81548160ff0219169083151502179055505061010f565b600080fd5b6000819050919050565b6100bf816100ac565b81146100ca57600080fd5b50565b6000815190506100dc816100b6565b92915050565b6000602082840312156100f8576100f76100a7565b5b6000610106848285016100cd565b91505092915050565b61085e8061011e6000396000f3fe60806040526004361061003f5760003560e01c806345bc7c85146100445780634ce5dbe71461006f578063777c658f1461009a578063a26e1186146100c5575b600080fd5b34801561005057600080fd5b506100596100e1565b6040516100669190610346565b60405180910390f35b34801561007b57600080fd5b506100846100e9565b6040516100919190610346565b60405180910390f35b3480156100a657600080fd5b506100af6100fe565b6040516100bc9190610346565b60405180910390f35b6100df60048036038101906100da91906103d0565b61010b565b005b600047905090565b6000476001546100f9919061044c565b905090565b6000600380549050905090565b600260009054906101000a900460ff1661012457600080fd5b6003604051806060016040528084848080601f016020809104026020016040519081016040528093929190818152602001838380828437600081840152601f19601f8201169050808301925050505050505081526020013373ffffffffffffffffffffffffffffffffffffffff16815260200134815250908060018154018082558091505060019003906000526020600020906003020160009091909190915060008201518160000190816101d991906106c6565b5060208201518160010160006101000a81548173ffffffffffffffffffffffffffffffffffffffff021916908373ffffffffffffffffffffffffffffffffffffffff1602179055506040820151816002015550507ef79f60084fd2b2fc97daffa19b748a4dec75b1c281bac18ef320d90de1db9d82823460405161025f939291906107f6565b60405180910390a160015447106102795761027861027d565b5b5050565b6000600260006101000a81548160ff02191690831515021790555060008054906101000a900473ffffffffffffffffffffffffffffffffffffffff1673ffffffffffffffffffffffffffffffffffffffff166108fc479081150290604051600060405180830381858888f193505050501580156102fe573d6000803e3d6000fd5b507f8735407ca1ae8b74dd5770f504b2e8150f9a70d8eebb2ead3961051c814bda6c60405160405180910390a1565b6000819050919050565b6103408161032d565b82525050565b600060208201905061035b6000830184610337565b92915050565b600080fd5b600080fd5b600080fd5b600080fd5b600080fd5b60008083601f8401126103905761038f61036b565b5b8235905067ffffffffffffffff8111156103ad576103ac610370565b5b6020830191508360018202830111156103c9576103c8610375565b5b9250929050565b600080602083850312156103e7576103e6610361565b5b600083013567ffffffffffffffff81111561040557610404610366565b5b6104118582860161037a565b92509250509250929050565b7f4e487b7100000000000000000000000000000000000000000000000000000000600052601160045260246000fd5b60006104578261032d565b91506104628361032d565b925082820390508181111561047a5761047961041d565b5b92915050565b600081519050919050565b7f4e487b7100000000000000000000000000000000000000000000000000000000600052604160045260246000fd5b7f4e487b7100000000000000000000000000000000000000000000000000000000600052602260045260246000fd5b6000600282049050600182168061050157607f821691505b602082108103610514576105136104ba565b5b50919050565b60008190508160005260206000209050919050565b60006020601f8301049050919050565b600082821b905092915050565b60006008830261057c7fffffffffffffffffffffffffffffffffffffffffffffffffffffffffffffffff8261053f565b610586868361053f565b95508019841693508086168417925050509392505050565b6000819050919050565b60006105c36105be6105b98461032d565b61059e565b61032d565b9050919050565b6000819050919050565b6105dd836105a8565b6105f16105e9826105ca565b84845461054c565b825550505050565b600090565b6106066105f9565b6106118184846105d4565b505050565b5b818110156106355761062a6000826105fe565b600181019050610617565b5050565b601f82111561067a5761064b8161051a565b6106548461052f565b81016020851015610663578190505b61067761066f8561052f565b830182610616565b50505b505050565b600082821c905092915050565b600061069d6000198460080261067f565b1980831691505092915050565b60006106b6838361068c565b9150826002028217905092915050565b6106cf82610480565b67ffffffffffffffff8111156106e8576106e761048b565b5b6106f282546104e9565b6106fd828285610639565b600060209050601f831160018114610730576000841561071e578287015190505b61072885826106aa565b865550610790565b601f19841661073e8661051a565b60005b8281101561076657848901518255600182019150602085019450602081019050610741565b86831015610783578489015161077f601f89168261068c565b8355505b6001600288020188555050505b505050505050565b600082825260208201905092915050565b82818337600083830152505050565b6000601f19601f8301169050919050565b60006107d58385610798565b93506107e28385846107a9565b6107eb836107b8565b840190509392505050565b600060408201905081810360008301526108118185876107c9565b90506108206020830184610337565b94935050505056fea264697066735822122069a57276a2b6b27fa07d2f790b0a7ff9bed19ddd60cbe36d351a0be94f39bed264736f6c63430008120033",
  "linkReferences": {},
  "deployedLinkReferences": {}
}