{
  "_format": "hh-sol-artifact-1",
  "contractName": "KickStarter",
  "sourceName": "contracts/Kickstart.sol",
  "abi": [
    {
      "inputs": [
        {
          "internalType": "uint256",
          "name": "_targetValue",
          "type": "uint256"
        }
      ],
      "stateMutability": "nonpayable",
      "type": "constructor"
    },
    {
      "anonymous": false,
      "inputs": [
        {
          "indexed": false,
          "internalType": "string",
          "name": "name",
          "type": "string"
        },
        {
          "indexed": false,
          "internalType": "uint256",
          "name": "value",
          "type": "uint256"
        }
      ],
      "name": "DonationReceived",
      "type": "event"
    },
    {
      "anonymous": false,
      "inputs": [],
      "name": "TargetReached",
      "type": "event"
    },
    {
      "stateMutability": "payable",
      "type": "fallback"
    },
    {
      "inputs": [],
      "name": "computeRemaining",
      "outputs": [
        {
          "internalType": "uint256",
          "name": "",
          "type": "uint256"
        }
      ],
      "stateMutability": "view",
      "type": "function"
    },
    {
      "inputs": [
        {
          "internalType": "string",
          "name": "name",
          "type": "string"
        }
      ],
      "name": "deposit",
      "outputs": [],
      "stateMutability": "payable",
      "type": "function"
    },
    {
      "inputs": [],
      "name": "getAccumulated",
      "outputs": [
        {
          "internalType": "uint256",
          "name": "",
          "type": "uint256"
        }
      ],
      "stateMutability": "view",
      "type": "function"
    },
    {
      "inputs": [],
      "name": "getTotalDonations",
      "outputs": [
        {
          "internalType": "uint256",
          "name": "",
          "type": "uint256"
        }
      ],
      "stateMutability": "view",
      "type": "function"
    },
    {
      "inputs": [],
      "name": "isTargetReached",
      "outputs": [
        {
          "internalType": "bool",
          "name": "",
          "type": "bool"
        }
      ],
      "stateMutability": "view",
      "type": "function"
    },
    {
      "stateMutability": "payable",
      "type": "receive"
    }
  ],
  "bytecode": "0x608060405234801561001057600080fd5b50604051610a3d380380610a3d833981810160405281019061003291906100fd565b6000811161003f57600080fd5b80600181905550336000806101000a81548173ffffffffffffffffffffffffffffffffffffffff021916908373ffffffffffffffffffffffffffffffffffffffff1602179055506001600260006101000a81548160ff0219169083151502179055506000600260016101000a81548160ff0219169083151502179055505061012a565b600080fd5b6000819050919050565b6100da816100c7565b81146100e557600080fd5b50565b6000815190506100f7816100d1565b92915050565b600060208284031215610113576101126100c2565b5b6000610121848285016100e8565b91505092915050565b610904806101396000396000f3fe60806040526004361061004e5760003560e01c806345bc7c85146100575780634ce5dbe7146100825780635e098f05146100ad578063777c658f146100d8578063a26e11861461010357610055565b3661005557005b005b34801561006357600080fd5b5061006c61011f565b60405161007991906103b6565b60405180910390f35b34801561008e57600080fd5b50610097610127565b6040516100a491906103b6565b60405180910390f35b3480156100b957600080fd5b506100c261013c565b6040516100cf91906103ec565b60405180910390f35b3480156100e457600080fd5b506100ed610153565b6040516100fa91906103b6565b60405180910390f35b61011d60048036038101906101189190610476565b610160565b005b600047905090565b60004760015461013791906104f2565b905090565b6000600260019054906101000a900460ff16905090565b6000600380549050905090565b600260009054906101000a900460ff1661017957600080fd5b6003604051806060016040528084848080601f016020809104026020016040519081016040528093929190818152602001838380828437600081840152601f19601f8201169050808301925050505050505081526020013373ffffffffffffffffffffffffffffffffffffffff168152602001348152509080600181540180825580915050600190039060005260206000209060030201600090919091909150600082015181600001908161022e919061076c565b5060208201518160010160006101000a81548173ffffffffffffffffffffffffffffffffffffffff021916908373ffffffffffffffffffffffffffffffffffffffff1602179055506040820151816002015550507ef79f60084fd2b2fc97daffa19b748a4dec75b1c281bac18ef320d90de1db9d8282346040516102b49392919061089c565b60405180910390a160015447106102ce576102cd6102d2565b5b5050565b6000600260006101000a81548160ff0219169083151502179055506001600260016101000a81548160ff02191690831515021790555060008054906101000a900473ffffffffffffffffffffffffffffffffffffffff1673ffffffffffffffffffffffffffffffffffffffff166108fc479081150290604051600060405180830381858888f1935050505015801561036e573d6000803e3d6000fd5b507f8735407ca1ae8b74dd5770f504b2e8150f9a70d8eebb2ead3961051c814bda6c60405160405180910390a1565b6000819050919050565b6103b08161039d565b82525050565b60006020820190506103cb60008301846103a7565b92915050565b60008115159050919050565b6103e6816103d1565b82525050565b600060208201905061040160008301846103dd565b92915050565b600080fd5b600080fd5b600080fd5b600080fd5b600080fd5b60008083601f84011261043657610435610411565b5b8235905067ffffffffffffffff81111561045357610452610416565b5b60208301915083600182028301111561046f5761046e61041b565b5b9250929050565b6000806020838503121561048d5761048c610407565b5b600083013567ffffffffffffffff8111156104ab576104aa61040c565b5b6104b785828601610420565b92509250509250929050565b7f4e487b7100000000000000000000000000000000000000000000000000000000600052601160045260246000fd5b60006104fd8261039d565b91506105088361039d565b92508282039050818111156105205761051f6104c3565b5b92915050565b600081519050919050565b7f4e487b7100000000000000000000000000000000000000000000000000000000600052604160045260246000fd5b7f4e487b7100000000000000000000000000000000000000000000000000000000600052602260045260246000fd5b600060028204905060018216806105a757607f821691505b6020821081036105ba576105b9610560565b5b50919050565b60008190508160005260206000209050919050565b60006020601f8301049050919050565b600082821b905092915050565b6000600883026106227fffffffffffffffffffffffffffffffffffffffffffffffffffffffffffffffff826105e5565b61062c86836105e5565b95508019841693508086168417925050509392505050565b6000819050919050565b600061066961066461065f8461039d565b610644565b61039d565b9050919050565b6000819050919050565b6106838361064e565b61069761068f82610670565b8484546105f2565b825550505050565b600090565b6106ac61069f565b6106b781848461067a565b505050565b5b818110156106db576106d06000826106a4565b6001810190506106bd565b5050565b601f821115610720576106f1816105c0565b6106fa846105d5565b81016020851015610709578190505b61071d610715856105d5565b8301826106bc565b50505b505050565b600082821c905092915050565b600061074360001984600802610725565b1980831691505092915050565b600061075c8383610732565b9150826002028217905092915050565b61077582610526565b67ffffffffffffffff81111561078e5761078d610531565b5b610798825461058f565b6107a38282856106df565b600060209050601f8311600181146107d657600084156107c4578287015190505b6107ce8582610750565b865550610836565b601f1984166107e4866105c0565b60005b8281101561080c578489015182556001820191506020850194506020810190506107e7565b868310156108295784890151610825601f891682610732565b8355505b6001600288020188555050505b505050505050565b600082825260208201905092915050565b82818337600083830152505050565b6000601f19601f8301169050919050565b600061087b838561083e565b935061088883858461084f565b6108918361085e565b840190509392505050565b600060408201905081810360008301526108b781858761086f565b90506108c660208301846103a7565b94935050505056fea26469706673582212206d5e262bdbc877bde2b55ae7dbabe52a5554ba9b0a8f4a0dc6c76df8ab7ea1d264736f6c63430008120033",
  "linkReferences": {},
  "deployedLinkReferences": {}
}