{
  "_format": "hh-sol-artifact-1",
  "contractName": "KickStarter",
  "sourceName": "contracts/Kickstart.sol",
  "abi": [
    {
      "inputs": [
        {
          "internalType": "uint256",
          "name": "_targetValue",
          "type": "uint256"
        }
      ],
      "stateMutability": "nonpayable",
      "type": "constructor"
    },
    {
      "anonymous": false,
      "inputs": [
        {
          "indexed": false,
          "internalType": "string",
          "name": "name",
          "type": "string"
        },
        {
          "indexed": false,
          "internalType": "uint256",
          "name": "value",
          "type": "uint256"
        }
      ],
      "name": "DonationReceived",
      "type": "event"
    },
    {
      "anonymous": false,
      "inputs": [],
      "name": "TargetReached",
      "type": "event"
    },
    {
      "inputs": [],
      "name": "computeRemaining",
      "outputs": [
        {
          "internalType": "uint256",
          "name": "",
          "type": "uint256"
        }
      ],
      "stateMutability": "view",
      "type": "function"
    },
    {
      "inputs": [
        {
          "internalType": "string",
          "name": "name",
          "type": "string"
        }
      ],
      "name": "deposit",
      "outputs": [],
      "stateMutability": "payable",
      "type": "function"
    },
    {
      "inputs": [],
      "name": "getAccumulated",
      "outputs": [
        {
          "internalType": "uint256",
          "name": "",
          "type": "uint256"
        }
      ],
      "stateMutability": "view",
      "type": "function"
    }
  ],
  "bytecode": "0x608060405234801561001057600080fd5b50604051610939380380610939833981810160405281019061003291906100e2565b6000811161003f57600080fd5b80600181905550336000806101000a81548173ffffffffffffffffffffffffffffffffffffffff021916908373ffffffffffffffffffffffffffffffffffffffff1602179055506001600260006101000a81548160ff0219169083151502179055505061010f565b600080fd5b6000819050919050565b6100bf816100ac565b81146100ca57600080fd5b50565b6000815190506100dc816100b6565b92915050565b6000602082840312156100f8576100f76100a7565b5b6000610106848285016100cd565b91505092915050565b61081b8061011e6000396000f3fe6080604052600436106100345760003560e01c806345bc7c85146100395780634ce5dbe714610064578063a26e11861461008f575b600080fd5b34801561004557600080fd5b5061004e6100ab565b60405161005b9190610303565b60405180910390f35b34801561007057600080fd5b506100796100b3565b6040516100869190610303565b60405180910390f35b6100a960048036038101906100a4919061038d565b6100c8565b005b600047905090565b6000476001546100c39190610409565b905090565b600260009054906101000a900460ff166100e157600080fd5b6003604051806060016040528084848080601f016020809104026020016040519081016040528093929190818152602001838380828437600081840152601f19601f8201169050808301925050505050505081526020013373ffffffffffffffffffffffffffffffffffffffff16815260200134815250908060018154018082558091505060019003906000526020600020906003020160009091909190915060008201518160000190816101969190610683565b5060208201518160010160006101000a81548173ffffffffffffffffffffffffffffffffffffffff021916908373ffffffffffffffffffffffffffffffffffffffff1602179055506040820151816002015550507ef79f60084fd2b2fc97daffa19b748a4dec75b1c281bac18ef320d90de1db9d82823460405161021c939291906107b3565b60405180910390a160015447106102365761023561023a565b5b5050565b6000600260006101000a81548160ff02191690831515021790555060008054906101000a900473ffffffffffffffffffffffffffffffffffffffff1673ffffffffffffffffffffffffffffffffffffffff166108fc479081150290604051600060405180830381858888f193505050501580156102bb573d6000803e3d6000fd5b507f8735407ca1ae8b74dd5770f504b2e8150f9a70d8eebb2ead3961051c814bda6c60405160405180910390a1565b6000819050919050565b6102fd816102ea565b82525050565b600060208201905061031860008301846102f4565b92915050565b600080fd5b600080fd5b600080fd5b600080fd5b600080fd5b60008083601f84011261034d5761034c610328565b5b8235905067ffffffffffffffff81111561036a5761036961032d565b5b60208301915083600182028301111561038657610385610332565b5b9250929050565b600080602083850312156103a4576103a361031e565b5b600083013567ffffffffffffffff8111156103c2576103c1610323565b5b6103ce85828601610337565b92509250509250929050565b7f4e487b7100000000000000000000000000000000000000000000000000000000600052601160045260246000fd5b6000610414826102ea565b915061041f836102ea565b9250828203905081811115610437576104366103da565b5b92915050565b600081519050919050565b7f4e487b7100000000000000000000000000000000000000000000000000000000600052604160045260246000fd5b7f4e487b7100000000000000000000000000000000000000000000000000000000600052602260045260246000fd5b600060028204905060018216806104be57607f821691505b6020821081036104d1576104d0610477565b5b50919050565b60008190508160005260206000209050919050565b60006020601f8301049050919050565b600082821b905092915050565b6000600883026105397fffffffffffffffffffffffffffffffffffffffffffffffffffffffffffffffff826104fc565b61054386836104fc565b95508019841693508086168417925050509392505050565b6000819050919050565b600061058061057b610576846102ea565b61055b565b6102ea565b9050919050565b6000819050919050565b61059a83610565565b6105ae6105a682610587565b848454610509565b825550505050565b600090565b6105c36105b6565b6105ce818484610591565b505050565b5b818110156105f2576105e76000826105bb565b6001810190506105d4565b5050565b601f82111561063757610608816104d7565b610611846104ec565b81016020851015610620578190505b61063461062c856104ec565b8301826105d3565b50505b505050565b600082821c905092915050565b600061065a6000198460080261063c565b1980831691505092915050565b60006106738383610649565b9150826002028217905092915050565b61068c8261043d565b67ffffffffffffffff8111156106a5576106a4610448565b5b6106af82546104a6565b6106ba8282856105f6565b600060209050601f8311600181146106ed57600084156106db578287015190505b6106e58582610667565b86555061074d565b601f1984166106fb866104d7565b60005b82811015610723578489015182556001820191506020850194506020810190506106fe565b86831015610740578489015161073c601f891682610649565b8355505b6001600288020188555050505b505050505050565b600082825260208201905092915050565b82818337600083830152505050565b6000601f19601f8301169050919050565b60006107928385610755565b935061079f838584610766565b6107a883610775565b840190509392505050565b600060408201905081810360008301526107ce818587610786565b90506107dd60208301846102f4565b94935050505056fea26469706673582212206aa5491846f43a71d23fb67917fcada38a6537148c01c8338db79f1a1584653864736f6c63430008120033",
  "linkReferences": {},
  "deployedLinkReferences": {}
}